{
  "_format": "hh-sol-artifact-1",
  "contractName": "MedicalRecords",
  "sourceName": "contracts/MedicalRecords.sol",
  "abi": [
    {
      "inputs": [],
      "stateMutability": "nonpayable",
      "type": "constructor"
    },
    {
      "inputs": [
        {
          "internalType": "address",
          "name": "",
          "type": "address"
        },
        {
          "internalType": "uint256",
          "name": "",
          "type": "uint256"
        }
      ],
      "name": "docterAccess",
      "outputs": [
        {
          "internalType": "address",
          "name": "",
          "type": "address"
        }
      ],
      "stateMutability": "view",
      "type": "function"
    },
    {
      "inputs": [],
      "name": "docterCount",
      "outputs": [
        {
          "internalType": "uint256",
          "name": "",
          "type": "uint256"
        }
      ],
      "stateMutability": "view",
      "type": "function"
    },
    {
      "inputs": [
        {
          "internalType": "uint256",
          "name": "",
          "type": "uint256"
        }
      ],
      "name": "docterList",
      "outputs": [
        {
          "internalType": "address",
          "name": "",
          "type": "address"
        }
      ],
      "stateMutability": "view",
      "type": "function"
    },
    {
      "inputs": [
        {
          "internalType": "address",
          "name": "_patient",
          "type": "address"
        },
        {
          "internalType": "address",
          "name": "_doctor",
          "type": "address"
        }
      ],
      "name": "getDoctorFiles",
      "outputs": [
        {
          "internalType": "bytes",
          "name": "",
          "type": "bytes"
        }
      ],
      "stateMutability": "view",
      "type": "function"
    },
    {
      "inputs": [
        {
          "internalType": "address",
          "name": "_patient",
          "type": "address"
        },
        {
          "internalType": "address",
          "name": "_doctor",
          "type": "address"
        }
      ],
      "name": "getDoctorPermission",
      "outputs": [
        {
          "internalType": "bool",
          "name": "",
          "type": "bool"
        }
      ],
      "stateMutability": "view",
      "type": "function"
    },
    {
      "inputs": [],
      "name": "getMedicationRecord",
      "outputs": [
        {
          "internalType": "bytes",
          "name": "",
          "type": "bytes"
        }
      ],
      "stateMutability": "view",
      "type": "function"
    },
    {
      "inputs": [
        {
          "internalType": "address",
          "name": "_patient",
          "type": "address"
        },
        {
          "internalType": "address",
          "name": "_doctor",
          "type": "address"
        }
      ],
      "name": "getModifiedFileFromDoctor",
      "outputs": [
        {
          "internalType": "bytes",
          "name": "",
          "type": "bytes"
        }
      ],
      "stateMutability": "view",
      "type": "function"
    },
    {
      "inputs": [
        {
          "internalType": "address",
          "name": "_doctor",
          "type": "address"
        },
        {
          "internalType": "bool",
          "name": "_giveAccess",
          "type": "bool"
        },
        {
          "internalType": "bytes",
          "name": "_fileForDoctor",
          "type": "bytes"
        }
      ],
      "name": "modifyAccess",
      "outputs": [],
      "stateMutability": "nonpayable",
      "type": "function"
    },
    {
      "inputs": [
        {
          "internalType": "bytes",
          "name": "publicKey",
          "type": "bytes"
        },
        {
          "internalType": "enum MedicalRecords.Role",
          "name": "_role",
          "type": "uint8"
        }
      ],
      "name": "modifyUser",
      "outputs": [],
      "stateMutability": "nonpayable",
      "type": "function"
    },
    {
      "inputs": [],
      "name": "patientCount",
      "outputs": [
        {
          "internalType": "uint256",
          "name": "",
          "type": "uint256"
        }
      ],
      "stateMutability": "view",
      "type": "function"
    },
    {
      "inputs": [
        {
          "internalType": "uint256",
          "name": "",
          "type": "uint256"
        }
      ],
      "name": "patientList",
      "outputs": [
        {
          "internalType": "address",
          "name": "",
          "type": "address"
        }
      ],
      "stateMutability": "view",
      "type": "function"
    },
    {
      "inputs": [
        {
          "internalType": "address",
          "name": "",
          "type": "address"
        }
      ],
      "name": "patients",
      "outputs": [
        {
          "internalType": "bool",
          "name": "exists",
          "type": "bool"
        },
        {
          "internalType": "bytes",
          "name": "medicationFile",
          "type": "bytes"
        }
      ],
      "stateMutability": "view",
      "type": "function"
    },
    {
      "inputs": [
        {
          "internalType": "address",
          "name": "",
          "type": "address"
        }
      ],
      "name": "publicKeys",
      "outputs": [
        {
          "internalType": "bytes",
          "name": "",
          "type": "bytes"
        }
      ],
      "stateMutability": "view",
      "type": "function"
    },
    {
      "inputs": [
        {
          "internalType": "address",
          "name": "_patient",
          "type": "address"
        },
        {
          "internalType": "bytes",
          "name": "_medicationFile",
          "type": "bytes"
        }
      ],
      "name": "updatePatientMedicalRecord",
      "outputs": [],
      "stateMutability": "nonpayable",
      "type": "function"
    },
    {
      "inputs": [
        {
          "internalType": "bytes",
          "name": "_medicationFile",
          "type": "bytes"
        }
      ],
      "name": "uploadMedicationRecord",
      "outputs": [],
      "stateMutability": "nonpayable",
      "type": "function"
    },
    {
      "inputs": [
        {
          "internalType": "address",
          "name": "",
          "type": "address"
        }
      ],
      "name": "userRoles",
      "outputs": [
        {
          "internalType": "enum MedicalRecords.Role",
          "name": "",
          "type": "uint8"
        }
      ],
      "stateMutability": "view",
      "type": "function"
    }
  ],
  "bytecode": "0x608060405234801561001057600080fd5b50610fed806100206000396000f3fe608060405234801561001057600080fd5b50600436106101005760003560e01c80638c6dccfd11610097578063aa03754311610066578063aa03754314610278578063babb1d411461028b578063de69d4fa1461029e578063f277c161146102a657600080fd5b80638c6dccfd146101fc578063a0303c411461020f578063a3d6f9a914610218578063a5faca9e1461022b57600080fd5b80634816061f116100d35780634816061f1461017b57806353a5711b1461018e57806364995d56146101b957806374d5e100146101cc57600080fd5b80630869cfbc14610105578063137fca231461012f57806322774cc8146101445780632ad0a7a814610164575b600080fd5b610118610113366004610b13565b6102b9565b604051610126929190610b7b565b60405180910390f35b61014261013d366004610be7565b610362565b005b610157610152366004610c4f565b61047f565b6040516101269190610c82565b61016d60055481565b604051908152602001610126565b610157610189366004610c4f565b61053d565b6101a161019c366004610c95565b610575565b6040516001600160a01b039091168152602001610126565b6101426101c7366004610cae565b61059f565b6101ef6101da366004610b13565b60016020526000908152604090205460ff1681565b6040516101269190610d1f565b61014261020a366004610d47565b6107f5565b61016d60075481565b610157610226366004610b13565b61085c565b610268610239366004610c4f565b6001600160a01b0391821660009081526002602081815260408084209490951683529201909152205460ff1690565b6040519015158152602001610126565b610142610286366004610d89565b6108f6565b6101a1610299366004610c95565b6109b5565b6101576109c5565b6101a16102b4366004610ddc565b610a69565b6002602052600090815260409020805460018201805460ff90921692916102df90610e06565b80601f016020809104026020016040519081016040528092919081815260200182805461030b90610e06565b80156103585780601f1061032d57610100808354040283529160200191610358565b820191906000526020600020905b81548152906001019060200180831161033b57829003601f168201915b5050505050905082565b6001803360009081526001602052604090205460ff16600281111561038957610389610d09565b146103af5760405162461bcd60e51b81526004016103a690610e40565b60405180910390fd5b836103f9573360009081526002602081815260408084206001600160a01b038a1685529283018252808420805460ff191690556003909201905281206103f491610aa1565b610478565b3360009081526002602081815260408084206001600160a01b038a1685529283018252808420805460ff1916600117905560039092019052902061043e838583610ed0565b506001600160a01b03851660009081526003602090815260408220805460018101825590835291200180546001600160a01b031916331790555b5050505050565b6001600160a01b038083166000908152600260209081526040808320938516835260049093019052208054606091906104b790610e06565b80601f01602080910402602001604051908101604052809291908181526020018280546104e390610e06565b80156105305780601f1061050557610100808354040283529160200191610530565b820191906000526020600020905b81548152906001019060200180831161051357829003601f168201915b5050505050905092915050565b6001600160a01b038083166000908152600260209081526040808320938516835260039093019052208054606091906104b790610e06565b6004818154811061058557600080fd5b6000918252602090912001546001600160a01b0316905081565b60018160028111156105b3576105b3610d09565b14806105d0575060028160028111156105ce576105ce610d09565b145b61060c5760405162461bcd60e51b815260206004820152600d60248201526c24b73b30b634b2103937b6329760991b60448201526064016103a6565b3360009081526001602052604081205460ff16600281111561063057610630610d09565b146106755760405162461bcd60e51b8152602060048201526015602482015274526f6c652061737369676e656420416c726561647960581b60448201526064016103a6565b600281600281111561068957610689610d09565b1480156106af575033600090815260208190526040902080546106ab90610e06565b1590505b1561070d576004805460018101825560009182527f8a35acfbc15ff81a39ae7d344fd709f28e8600b4aa8c65c6b64bfe7fe36bd19b0180546001600160a01b03191633179055600580549161070383610f90565b91905055506107a1565b600181600281111561072157610721610d09565b1480156107475750336000908152602081905260409020805461074390610e06565b1590505b156107a1576006805460018101825560009182527ff652222313e28459528d920b65115c16c04f3efc82aaedc97be59f3f377c0d3f0180546001600160a01b03191633179055600780549161079b83610f90565b91905055505b3360009081526020819052604090206107bb838583610ed0565b503360009081526001602081905260409091208054839260ff19909116908360028111156107eb576107eb610d09565b0217905550505050565b6001803360009081526001602052604090205460ff16600281111561081c5761081c610d09565b146108395760405162461bcd60e51b81526004016103a690610e40565b336000908152600260205260409020600101610856838583610ed0565b50505050565b6000602081905290815260409020805461087590610e06565b80601f01602080910402602001604051908101604052809291908181526020018280546108a190610e06565b80156108ee5780601f106108c3576101008083540402835291602001916108ee565b820191906000526020600020905b8154815290600101906020018083116108d157829003601f168201915b505050505081565b6002803360009081526001602052604090205460ff16600281111561091d5761091d610d09565b1461093a5760405162461bcd60e51b81526004016103a690610e40565b6001600160a01b0384166000908152600260208181526040808420338552909201905290205460ff1615156001146109845760405162461bcd60e51b81526004016103a690610e40565b6001600160a01b03841660009081526002602090815260408083203384526004019091529020610478838583610ed0565b6006818154811061058557600080fd5b3360009081526002602052604090206001018054606091906109e690610e06565b80601f0160208091040260200160405190810160405280929190818152602001828054610a1290610e06565b8015610a5f5780601f10610a3457610100808354040283529160200191610a5f565b820191906000526020600020905b815481529060010190602001808311610a4257829003601f168201915b5050505050905090565b60036020528160005260406000208181548110610a8557600080fd5b6000918252602090912001546001600160a01b03169150829050565b508054610aad90610e06565b6000825580601f10610abd575050565b601f016020900490600052602060002090810190610adb9190610ade565b50565b5b80821115610af35760008155600101610adf565b5090565b80356001600160a01b0381168114610b0e57600080fd5b919050565b600060208284031215610b2557600080fd5b610b2e82610af7565b9392505050565b6000815180845260005b81811015610b5b57602081850181015186830182015201610b3f565b506000602082860101526020601f19601f83011685010191505092915050565b8215158152604060208201526000610b966040830184610b35565b949350505050565b60008083601f840112610bb057600080fd5b50813567ffffffffffffffff811115610bc857600080fd5b602083019150836020828501011115610be057600080fd5b9250929050565b60008060008060608587031215610bfd57600080fd5b610c0685610af7565b935060208501358015158114610c1b57600080fd5b9250604085013567ffffffffffffffff811115610c3757600080fd5b610c4387828801610b9e565b95989497509550505050565b60008060408385031215610c6257600080fd5b610c6b83610af7565b9150610c7960208401610af7565b90509250929050565b602081526000610b2e6020830184610b35565b600060208284031215610ca757600080fd5b5035919050565b600080600060408486031215610cc357600080fd5b833567ffffffffffffffff811115610cda57600080fd5b610ce686828701610b9e565b909450925050602084013560038110610cfe57600080fd5b809150509250925092565b634e487b7160e01b600052602160045260246000fd5b6020810160038310610d4157634e487b7160e01b600052602160045260246000fd5b91905290565b60008060208385031215610d5a57600080fd5b823567ffffffffffffffff811115610d7157600080fd5b610d7d85828601610b9e565b90969095509350505050565b600080600060408486031215610d9e57600080fd5b610da784610af7565b9250602084013567ffffffffffffffff811115610dc357600080fd5b610dcf86828701610b9e565b9497909650939450505050565b60008060408385031215610def57600080fd5b610df883610af7565b946020939093013593505050565b600181811c90821680610e1a57607f821691505b602082108103610e3a57634e487b7160e01b600052602260045260246000fd5b50919050565b6020808252600f908201526e2737ba1030baba3437b934bd32b21760891b604082015260600190565b634e487b7160e01b600052604160045260246000fd5b601f821115610ecb576000816000526020600020601f850160051c81016020861015610ea85750805b601f850160051c820191505b81811015610ec757828155600101610eb4565b5050505b505050565b67ffffffffffffffff831115610ee857610ee8610e69565b610efc83610ef68354610e06565b83610e7f565b6000601f841160018114610f305760008515610f185750838201355b600019600387901b1c1916600186901b178355610478565b600083815260209020601f19861690835b82811015610f615786850135825560209485019460019092019101610f41565b5086821015610f7e5760001960f88860031b161c19848701351681555b505060018560011b0183555050505050565b600060018201610fb057634e487b7160e01b600052601160045260246000fd5b506001019056fea26469706673582212205ef1ff295246eb152ee40ed30c0cfd058ba0aab8e21f874c5aec344ca470e6a064736f6c63430008180033",
  "linkReferences": {},
  "deployedLinkReferences": {}
}