{
  "contracts/MedicalRecords.sol": {
    "MedicalRecords": {
      "abi": [
        {
          "inputs": [],
          "stateMutability": "nonpayable",
          "type": "constructor"
        },
        {
          "inputs": [
            {
              "internalType": "address",
              "name": "",
              "type": "address"
            },
            {
              "internalType": "uint256",
              "name": "",
              "type": "uint256"
            }
          ],
          "name": "docterAccess",
          "outputs": [
            {
              "internalType": "address",
              "name": "",
              "type": "address"
            }
          ],
          "stateMutability": "view",
          "type": "function"
        },
        {
          "inputs": [],
          "name": "docterCount",
          "outputs": [
            {
              "internalType": "uint256",
              "name": "",
              "type": "uint256"
            }
          ],
          "stateMutability": "view",
          "type": "function"
        },
        {
          "inputs": [
            {
              "internalType": "uint256",
              "name": "",
              "type": "uint256"
            }
          ],
          "name": "docterList",
          "outputs": [
            {
              "internalType": "address",
              "name": "",
              "type": "address"
            }
          ],
          "stateMutability": "view",
          "type": "function"
        },
        {
          "inputs": [
            {
              "internalType": "address",
              "name": "_patient",
              "type": "address"
            },
            {
              "internalType": "address",
              "name": "_doctor",
              "type": "address"
            }
          ],
          "name": "getDoctorFiles",
          "outputs": [
            {
              "internalType": "bytes",
              "name": "",
              "type": "bytes"
            }
          ],
          "stateMutability": "view",
          "type": "function"
        },
        {
          "inputs": [
            {
              "internalType": "address",
              "name": "_patient",
              "type": "address"
            },
            {
              "internalType": "address",
              "name": "_doctor",
              "type": "address"
            }
          ],
          "name": "getDoctorPermission",
          "outputs": [
            {
              "internalType": "bool",
              "name": "",
              "type": "bool"
            }
          ],
          "stateMutability": "view",
          "type": "function"
        },
        {
          "inputs": [],
          "name": "getMedicationRecord",
          "outputs": [
            {
              "internalType": "bytes",
              "name": "",
              "type": "bytes"
            }
          ],
          "stateMutability": "view",
          "type": "function"
        },
        {
          "inputs": [
            {
              "internalType": "address",
              "name": "_doctor",
              "type": "address"
            },
            {
              "internalType": "bool",
              "name": "_giveAccess",
              "type": "bool"
            },
            {
              "internalType": "bytes",
              "name": "_fileForDoctor",
              "type": "bytes"
            }
          ],
          "name": "modifyAccess",
          "outputs": [],
          "stateMutability": "nonpayable",
          "type": "function"
        },
        {
          "inputs": [
            {
              "internalType": "bytes",
              "name": "publicKey",
              "type": "bytes"
            },
            {
              "internalType": "enum MedicalRecords.Role",
              "name": "_role",
              "type": "uint8"
            }
          ],
          "name": "modifyUser",
          "outputs": [],
          "stateMutability": "nonpayable",
          "type": "function"
        },
        {
          "inputs": [],
          "name": "patientCount",
          "outputs": [
            {
              "internalType": "uint256",
              "name": "",
              "type": "uint256"
            }
          ],
          "stateMutability": "view",
          "type": "function"
        },
        {
          "inputs": [
            {
              "internalType": "uint256",
              "name": "",
              "type": "uint256"
            }
          ],
          "name": "patientList",
          "outputs": [
            {
              "internalType": "address",
              "name": "",
              "type": "address"
            }
          ],
          "stateMutability": "view",
          "type": "function"
        },
        {
          "inputs": [
            {
              "internalType": "address",
              "name": "",
              "type": "address"
            }
          ],
          "name": "patients",
          "outputs": [
            {
              "internalType": "bool",
              "name": "exists",
              "type": "bool"
            },
            {
              "internalType": "bytes",
              "name": "medicationFile",
              "type": "bytes"
            }
          ],
          "stateMutability": "view",
          "type": "function"
        },
        {
          "inputs": [
            {
              "internalType": "address",
              "name": "",
              "type": "address"
            }
          ],
          "name": "publicKeys",
          "outputs": [
            {
              "internalType": "bytes",
              "name": "",
              "type": "bytes"
            }
          ],
          "stateMutability": "view",
          "type": "function"
        },
        {
          "inputs": [
            {
              "internalType": "bytes",
              "name": "_medicationFile",
              "type": "bytes"
            }
          ],
          "name": "uploadMedicationRecord",
          "outputs": [],
          "stateMutability": "nonpayable",
          "type": "function"
        },
        {
          "inputs": [
            {
              "internalType": "address",
              "name": "",
              "type": "address"
            }
          ],
          "name": "userRoles",
          "outputs": [
            {
              "internalType": "enum MedicalRecords.Role",
              "name": "",
              "type": "uint8"
            }
          ],
          "stateMutability": "view",
          "type": "function"
        }
      ],
      "evm": {
        "bytecode": {
          "linkReferences": {},
          "object": "608060405234801561001057600080fd5b50610e7e806100206000396000f3fe608060405234801561001057600080fd5b50600436106100ea5760003560e01c80638c6dccfd1161008c578063a5faca9e11610066578063a5faca9e14610202578063babb1d411461024f578063de69d4fa14610262578063f277c1611461026a57600080fd5b80638c6dccfd146101d3578063a0303c41146101e6578063a3d6f9a9146101ef57600080fd5b80634816061f116100c85780634816061f1461014557806353a5711b1461016557806364995d561461019057806374d5e100146101a357600080fd5b80630869cfbc146100ef578063137fca23146101195780632ad0a7a81461012e575b600080fd5b6101026100fd366004610a20565b61027d565b604051610110929190610a88565b60405180910390f35b61012c610127366004610af4565b610326565b005b61013760055481565b604051908152602001610110565b610158610153366004610b5c565b610461565b6040516101109190610b8f565b610178610173366004610ba2565b61051f565b6040516001600160a01b039091168152602001610110565b61012c61019e366004610bbb565b610549565b6101c66101b1366004610a20565b60016020526000908152604090205460ff1681565b6040516101109190610c2c565b61012c6101e1366004610c54565b61079f565b61013760075481565b6101586101fd366004610a20565b610828565b61023f610210366004610b5c565b6001600160a01b0391821660009081526002602081815260408084209490951683529201909152205460ff1690565b6040519015158152602001610110565b61017861025d366004610ba2565b6108c2565b6101586108d2565b610178610278366004610c96565b610976565b6002602052600090815260409020805460018201805460ff90921692916102a390610cc0565b80601f01602080910402602001604051908101604052809291908181526020018280546102cf90610cc0565b801561031c5780601f106102f15761010080835404028352916020019161031c565b820191906000526020600020905b8154815290600101906020018083116102ff57829003601f168201915b5050505050905082565b6001803360009081526001602052604090205460ff16600281111561034d5761034d610c16565b146103915760405162461bcd60e51b815260206004820152600f60248201526e2737ba1030baba3437b934bd32b21760891b60448201526064015b60405180910390fd5b836103db573360009081526002602081815260408084206001600160a01b038a1685529283018252808420805460ff191690556003909201905281206103d6916109ae565b61045a565b3360009081526002602081815260408084206001600160a01b038a1685529283018252808420805460ff19166001179055600390920190529020610420838583610d61565b506001600160a01b03851660009081526003602090815260408220805460018101825590835291200180546001600160a01b031916331790555b5050505050565b6001600160a01b0380831660009081526002602090815260408083209385168352600390930190522080546060919061049990610cc0565b80601f01602080910402602001604051908101604052809291908181526020018280546104c590610cc0565b80156105125780601f106104e757610100808354040283529160200191610512565b820191906000526020600020905b8154815290600101906020018083116104f557829003601f168201915b5050505050905092915050565b6004818154811061052f57600080fd5b6000918252602090912001546001600160a01b0316905081565b600181600281111561055d5761055d610c16565b148061057a5750600281600281111561057857610578610c16565b145b6105b65760405162461bcd60e51b815260206004820152600d60248201526c24b73b30b634b2103937b6329760991b6044820152606401610388565b3360009081526001602052604081205460ff1660028111156105da576105da610c16565b1461061f5760405162461bcd60e51b8152602060048201526015602482015274526f6c652061737369676e656420416c726561647960581b6044820152606401610388565b600281600281111561063357610633610c16565b1480156106595750336000908152602081905260409020805461065590610cc0565b1590505b156106b7576004805460018101825560009182527f8a35acfbc15ff81a39ae7d344fd709f28e8600b4aa8c65c6b64bfe7fe36bd19b0180546001600160a01b0319163317905560058054916106ad83610e21565b919050555061074b565b60018160028111156106cb576106cb610c16565b1480156106f1575033600090815260208190526040902080546106ed90610cc0565b1590505b1561074b576006805460018101825560009182527ff652222313e28459528d920b65115c16c04f3efc82aaedc97be59f3f377c0d3f0180546001600160a01b03191633179055600780549161074583610e21565b91905055505b336000908152602081905260409020610765838583610d61565b503360009081526001602081905260409091208054839260ff199091169083600281111561079557610795610c16565b0217905550505050565b6001803360009081526001602052604090205460ff1660028111156107c6576107c6610c16565b146108055760405162461bcd60e51b815260206004820152600f60248201526e2737ba1030baba3437b934bd32b21760891b6044820152606401610388565b336000908152600260205260409020600101610822838583610d61565b50505050565b6000602081905290815260409020805461084190610cc0565b80601f016020809104026020016040519081016040528092919081815260200182805461086d90610cc0565b80156108ba5780601f1061088f576101008083540402835291602001916108ba565b820191906000526020600020905b81548152906001019060200180831161089d57829003601f168201915b505050505081565b6006818154811061052f57600080fd5b3360009081526002602052604090206001018054606091906108f390610cc0565b80601f016020809104026020016040519081016040528092919081815260200182805461091f90610cc0565b801561096c5780601f106109415761010080835404028352916020019161096c565b820191906000526020600020905b81548152906001019060200180831161094f57829003601f168201915b5050505050905090565b6003602052816000526040600020818154811061099257600080fd5b6000918252602090912001546001600160a01b03169150829050565b5080546109ba90610cc0565b6000825580601f106109ca575050565b601f0160209004906000526020600020908101906109e891906109eb565b50565b5b80821115610a0057600081556001016109ec565b5090565b80356001600160a01b0381168114610a1b57600080fd5b919050565b600060208284031215610a3257600080fd5b610a3b82610a04565b9392505050565b6000815180845260005b81811015610a6857602081850181015186830182015201610a4c565b506000602082860101526020601f19601f83011685010191505092915050565b8215158152604060208201526000610aa36040830184610a42565b949350505050565b60008083601f840112610abd57600080fd5b50813567ffffffffffffffff811115610ad557600080fd5b602083019150836020828501011115610aed57600080fd5b9250929050565b60008060008060608587031215610b0a57600080fd5b610b1385610a04565b935060208501358015158114610b2857600080fd5b9250604085013567ffffffffffffffff811115610b4457600080fd5b610b5087828801610aab565b95989497509550505050565b60008060408385031215610b6f57600080fd5b610b7883610a04565b9150610b8660208401610a04565b90509250929050565b602081526000610a3b6020830184610a42565b600060208284031215610bb457600080fd5b5035919050565b600080600060408486031215610bd057600080fd5b833567ffffffffffffffff811115610be757600080fd5b610bf386828701610aab565b909450925050602084013560038110610c0b57600080fd5b809150509250925092565b634e487b7160e01b600052602160045260246000fd5b6020810160038310610c4e57634e487b7160e01b600052602160045260246000fd5b91905290565b60008060208385031215610c6757600080fd5b823567ffffffffffffffff811115610c7e57600080fd5b610c8a85828601610aab565b90969095509350505050565b60008060408385031215610ca957600080fd5b610cb283610a04565b946020939093013593505050565b600181811c90821680610cd457607f821691505b602082108103610cf457634e487b7160e01b600052602260045260246000fd5b50919050565b634e487b7160e01b600052604160045260246000fd5b601f821115610d5c576000816000526020600020601f850160051c81016020861015610d395750805b601f850160051c820191505b81811015610d5857828155600101610d45565b5050505b505050565b67ffffffffffffffff831115610d7957610d79610cfa565b610d8d83610d878354610cc0565b83610d10565b6000601f841160018114610dc15760008515610da95750838201355b600019600387901b1c1916600186901b17835561045a565b600083815260209020601f19861690835b82811015610df25786850135825560209485019460019092019101610dd2565b5086821015610e0f5760001960f88860031b161c19848701351681555b505060018560011b0183555050505050565b600060018201610e4157634e487b7160e01b600052601160045260246000fd5b506001019056fea2646970667358221220ab6e7b0999816c2a3abf54956e06a5619062d91d181b05f6f21d8747f919f7c364736f6c63430008180033",
          "opcodes": "PUSH1 0x80 PUSH1 0x40 MSTORE CALLVALUE DUP1 ISZERO PUSH2 0x10 JUMPI PUSH1 0x0 DUP1 REVERT JUMPDEST POP PUSH2 0xE7E DUP1 PUSH2 0x20 PUSH1 0x0 CODECOPY PUSH1 0x0 RETURN INVALID PUSH1 0x80 PUSH1 0x40 MSTORE CALLVALUE DUP1 ISZERO PUSH2 0x10 JUMPI PUSH1 0x0 DUP1 REVERT JUMPDEST POP PUSH1 0x4 CALLDATASIZE LT PUSH2 0xEA JUMPI PUSH1 0x0 CALLDATALOAD PUSH1 0xE0 SHR DUP1 PUSH4 0x8C6DCCFD GT PUSH2 0x8C JUMPI DUP1 PUSH4 0xA5FACA9E GT PUSH2 0x66 JUMPI DUP1 PUSH4 0xA5FACA9E EQ PUSH2 0x202 JUMPI DUP1 PUSH4 0xBABB1D41 EQ PUSH2 0x24F JUMPI DUP1 PUSH4 0xDE69D4FA EQ PUSH2 0x262 JUMPI DUP1 PUSH4 0xF277C161 EQ PUSH2 0x26A JUMPI PUSH1 0x0 DUP1 REVERT JUMPDEST DUP1 PUSH4 0x8C6DCCFD EQ PUSH2 0x1D3 JUMPI DUP1 PUSH4 0xA0303C41 EQ PUSH2 0x1E6 JUMPI DUP1 PUSH4 0xA3D6F9A9 EQ PUSH2 0x1EF JUMPI PUSH1 0x0 DUP1 REVERT JUMPDEST DUP1 PUSH4 0x4816061F GT PUSH2 0xC8 JUMPI DUP1 PUSH4 0x4816061F EQ PUSH2 0x145 JUMPI DUP1 PUSH4 0x53A5711B EQ PUSH2 0x165 JUMPI DUP1 PUSH4 0x64995D56 EQ PUSH2 0x190 JUMPI DUP1 PUSH4 0x74D5E100 EQ PUSH2 0x1A3 JUMPI PUSH1 0x0 DUP1 REVERT JUMPDEST DUP1 PUSH4 0x869CFBC EQ PUSH2 0xEF JUMPI DUP1 PUSH4 0x137FCA23 EQ PUSH2 0x119 JUMPI DUP1 PUSH4 0x2AD0A7A8 EQ PUSH2 0x12E JUMPI JUMPDEST PUSH1 0x0 DUP1 REVERT JUMPDEST PUSH2 0x102 PUSH2 0xFD CALLDATASIZE PUSH1 0x4 PUSH2 0xA20 JUMP JUMPDEST PUSH2 0x27D JUMP JUMPDEST PUSH1 0x40 MLOAD PUSH2 0x110 SWAP3 SWAP2 SWAP1 PUSH2 0xA88 JUMP JUMPDEST PUSH1 0x40 MLOAD DUP1 SWAP2 SUB SWAP1 RETURN JUMPDEST PUSH2 0x12C PUSH2 0x127 CALLDATASIZE PUSH1 0x4 PUSH2 0xAF4 JUMP JUMPDEST PUSH2 0x326 JUMP JUMPDEST STOP JUMPDEST PUSH2 0x137 PUSH1 0x5 SLOAD DUP2 JUMP JUMPDEST PUSH1 0x40 MLOAD SWAP1 DUP2 MSTORE PUSH1 0x20 ADD PUSH2 0x110 JUMP JUMPDEST PUSH2 0x158 PUSH2 0x153 CALLDATASIZE PUSH1 0x4 PUSH2 0xB5C JUMP JUMPDEST PUSH2 0x461 JUMP JUMPDEST PUSH1 0x40 MLOAD PUSH2 0x110 SWAP2 SWAP1 PUSH2 0xB8F JUMP JUMPDEST PUSH2 0x178 PUSH2 0x173 CALLDATASIZE PUSH1 0x4 PUSH2 0xBA2 JUMP JUMPDEST PUSH2 0x51F JUMP JUMPDEST PUSH1 0x40 MLOAD PUSH1 0x1 PUSH1 0x1 PUSH1 0xA0 SHL SUB SWAP1 SWAP2 AND DUP2 MSTORE PUSH1 0x20 ADD PUSH2 0x110 JUMP JUMPDEST PUSH2 0x12C PUSH2 0x19E CALLDATASIZE PUSH1 0x4 PUSH2 0xBBB JUMP JUMPDEST PUSH2 0x549 JUMP JUMPDEST PUSH2 0x1C6 PUSH2 0x1B1 CALLDATASIZE PUSH1 0x4 PUSH2 0xA20 JUMP JUMPDEST PUSH1 0x1 PUSH1 0x20 MSTORE PUSH1 0x0 SWAP1 DUP2 MSTORE PUSH1 0x40 SWAP1 KECCAK256 SLOAD PUSH1 0xFF AND DUP2 JUMP JUMPDEST PUSH1 0x40 MLOAD PUSH2 0x110 SWAP2 SWAP1 PUSH2 0xC2C JUMP JUMPDEST PUSH2 0x12C PUSH2 0x1E1 CALLDATASIZE PUSH1 0x4 PUSH2 0xC54 JUMP JUMPDEST PUSH2 0x79F JUMP JUMPDEST PUSH2 0x137 PUSH1 0x7 SLOAD DUP2 JUMP JUMPDEST PUSH2 0x158 PUSH2 0x1FD CALLDATASIZE PUSH1 0x4 PUSH2 0xA20 JUMP JUMPDEST PUSH2 0x828 JUMP JUMPDEST PUSH2 0x23F PUSH2 0x210 CALLDATASIZE PUSH1 0x4 PUSH2 0xB5C JUMP JUMPDEST PUSH1 0x1 PUSH1 0x1 PUSH1 0xA0 SHL SUB SWAP2 DUP3 AND PUSH1 0x0 SWAP1 DUP2 MSTORE PUSH1 0x2 PUSH1 0x20 DUP2 DUP2 MSTORE PUSH1 0x40 DUP1 DUP5 KECCAK256 SWAP5 SWAP1 SWAP6 AND DUP4 MSTORE SWAP3 ADD SWAP1 SWAP2 MSTORE KECCAK256 SLOAD PUSH1 0xFF AND SWAP1 JUMP JUMPDEST PUSH1 0x40 MLOAD SWAP1 ISZERO ISZERO DUP2 MSTORE PUSH1 0x20 ADD PUSH2 0x110 JUMP JUMPDEST PUSH2 0x178 PUSH2 0x25D CALLDATASIZE PUSH1 0x4 PUSH2 0xBA2 JUMP JUMPDEST PUSH2 0x8C2 JUMP JUMPDEST PUSH2 0x158 PUSH2 0x8D2 JUMP JUMPDEST PUSH2 0x178 PUSH2 0x278 CALLDATASIZE PUSH1 0x4 PUSH2 0xC96 JUMP JUMPDEST PUSH2 0x976 JUMP JUMPDEST PUSH1 0x2 PUSH1 0x20 MSTORE PUSH1 0x0 SWAP1 DUP2 MSTORE PUSH1 0x40 SWAP1 KECCAK256 DUP1 SLOAD PUSH1 0x1 DUP3 ADD DUP1 SLOAD PUSH1 0xFF SWAP1 SWAP3 AND SWAP3 SWAP2 PUSH2 0x2A3 SWAP1 PUSH2 0xCC0 JUMP JUMPDEST DUP1 PUSH1 0x1F ADD PUSH1 0x20 DUP1 SWAP2 DIV MUL PUSH1 0x20 ADD PUSH1 0x40 MLOAD SWAP1 DUP2 ADD PUSH1 0x40 MSTORE DUP1 SWAP3 SWAP2 SWAP1 DUP2 DUP2 MSTORE PUSH1 0x20 ADD DUP3 DUP1 SLOAD PUSH2 0x2CF SWAP1 PUSH2 0xCC0 JUMP JUMPDEST DUP1 ISZERO PUSH2 0x31C JUMPI DUP1 PUSH1 0x1F LT PUSH2 0x2F1 JUMPI PUSH2 0x100 DUP1 DUP4 SLOAD DIV MUL DUP4 MSTORE SWAP2 PUSH1 0x20 ADD SWAP2 PUSH2 0x31C JUMP JUMPDEST DUP3 ADD SWAP2 SWAP1 PUSH1 0x0 MSTORE PUSH1 0x20 PUSH1 0x0 KECCAK256 SWAP1 JUMPDEST DUP2 SLOAD DUP2 MSTORE SWAP1 PUSH1 0x1 ADD SWAP1 PUSH1 0x20 ADD DUP1 DUP4 GT PUSH2 0x2FF JUMPI DUP3 SWAP1 SUB PUSH1 0x1F AND DUP3 ADD SWAP2 JUMPDEST POP POP POP POP POP SWAP1 POP DUP3 JUMP JUMPDEST PUSH1 0x1 DUP1 CALLER PUSH1 0x0 SWAP1 DUP2 MSTORE PUSH1 0x1 PUSH1 0x20 MSTORE PUSH1 0x40 SWAP1 KECCAK256 SLOAD PUSH1 0xFF AND PUSH1 0x2 DUP2 GT ISZERO PUSH2 0x34D JUMPI PUSH2 0x34D PUSH2 0xC16 JUMP JUMPDEST EQ PUSH2 0x391 JUMPI PUSH1 0x40 MLOAD PUSH3 0x461BCD PUSH1 0xE5 SHL DUP2 MSTORE PUSH1 0x20 PUSH1 0x4 DUP3 ADD MSTORE PUSH1 0xF PUSH1 0x24 DUP3 ADD MSTORE PUSH15 0x2737BA1030BABA3437B934BD32B217 PUSH1 0x89 SHL PUSH1 0x44 DUP3 ADD MSTORE PUSH1 0x64 ADD JUMPDEST PUSH1 0x40 MLOAD DUP1 SWAP2 SUB SWAP1 REVERT JUMPDEST DUP4 PUSH2 0x3DB JUMPI CALLER PUSH1 0x0 SWAP1 DUP2 MSTORE PUSH1 0x2 PUSH1 0x20 DUP2 DUP2 MSTORE PUSH1 0x40 DUP1 DUP5 KECCAK256 PUSH1 0x1 PUSH1 0x1 PUSH1 0xA0 SHL SUB DUP11 AND DUP6 MSTORE SWAP3 DUP4 ADD DUP3 MSTORE DUP1 DUP5 KECCAK256 DUP1 SLOAD PUSH1 0xFF NOT AND SWAP1 SSTORE PUSH1 0x3 SWAP1 SWAP3 ADD SWAP1 MSTORE DUP2 KECCAK256 PUSH2 0x3D6 SWAP2 PUSH2 0x9AE JUMP JUMPDEST PUSH2 0x45A JUMP JUMPDEST CALLER PUSH1 0x0 SWAP1 DUP2 MSTORE PUSH1 0x2 PUSH1 0x20 DUP2 DUP2 MSTORE PUSH1 0x40 DUP1 DUP5 KECCAK256 PUSH1 0x1 PUSH1 0x1 PUSH1 0xA0 SHL SUB DUP11 AND DUP6 MSTORE SWAP3 DUP4 ADD DUP3 MSTORE DUP1 DUP5 KECCAK256 DUP1 SLOAD PUSH1 0xFF NOT AND PUSH1 0x1 OR SWAP1 SSTORE PUSH1 0x3 SWAP1 SWAP3 ADD SWAP1 MSTORE SWAP1 KECCAK256 PUSH2 0x420 DUP4 DUP6 DUP4 PUSH2 0xD61 JUMP JUMPDEST POP PUSH1 0x1 PUSH1 0x1 PUSH1 0xA0 SHL SUB DUP6 AND PUSH1 0x0 SWAP1 DUP2 MSTORE PUSH1 0x3 PUSH1 0x20 SWAP1 DUP2 MSTORE PUSH1 0x40 DUP3 KECCAK256 DUP1 SLOAD PUSH1 0x1 DUP2 ADD DUP3 SSTORE SWAP1 DUP4 MSTORE SWAP2 KECCAK256 ADD DUP1 SLOAD PUSH1 0x1 PUSH1 0x1 PUSH1 0xA0 SHL SUB NOT AND CALLER OR SWAP1 SSTORE JUMPDEST POP POP POP POP POP JUMP JUMPDEST PUSH1 0x1 PUSH1 0x1 PUSH1 0xA0 SHL SUB DUP1 DUP4 AND PUSH1 0x0 SWAP1 DUP2 MSTORE PUSH1 0x2 PUSH1 0x20 SWAP1 DUP2 MSTORE PUSH1 0x40 DUP1 DUP4 KECCAK256 SWAP4 DUP6 AND DUP4 MSTORE PUSH1 0x3 SWAP1 SWAP4 ADD SWAP1 MSTORE KECCAK256 DUP1 SLOAD PUSH1 0x60 SWAP2 SWAP1 PUSH2 0x499 SWAP1 PUSH2 0xCC0 JUMP JUMPDEST DUP1 PUSH1 0x1F ADD PUSH1 0x20 DUP1 SWAP2 DIV MUL PUSH1 0x20 ADD PUSH1 0x40 MLOAD SWAP1 DUP2 ADD PUSH1 0x40 MSTORE DUP1 SWAP3 SWAP2 SWAP1 DUP2 DUP2 MSTORE PUSH1 0x20 ADD DUP3 DUP1 SLOAD PUSH2 0x4C5 SWAP1 PUSH2 0xCC0 JUMP JUMPDEST DUP1 ISZERO PUSH2 0x512 JUMPI DUP1 PUSH1 0x1F LT PUSH2 0x4E7 JUMPI PUSH2 0x100 DUP1 DUP4 SLOAD DIV MUL DUP4 MSTORE SWAP2 PUSH1 0x20 ADD SWAP2 PUSH2 0x512 JUMP JUMPDEST DUP3 ADD SWAP2 SWAP1 PUSH1 0x0 MSTORE PUSH1 0x20 PUSH1 0x0 KECCAK256 SWAP1 JUMPDEST DUP2 SLOAD DUP2 MSTORE SWAP1 PUSH1 0x1 ADD SWAP1 PUSH1 0x20 ADD DUP1 DUP4 GT PUSH2 0x4F5 JUMPI DUP3 SWAP1 SUB PUSH1 0x1F AND DUP3 ADD SWAP2 JUMPDEST POP POP POP POP POP SWAP1 POP SWAP3 SWAP2 POP POP JUMP JUMPDEST PUSH1 0x4 DUP2 DUP2 SLOAD DUP2 LT PUSH2 0x52F JUMPI PUSH1 0x0 DUP1 REVERT JUMPDEST PUSH1 0x0 SWAP2 DUP3 MSTORE PUSH1 0x20 SWAP1 SWAP2 KECCAK256 ADD SLOAD PUSH1 0x1 PUSH1 0x1 PUSH1 0xA0 SHL SUB AND SWAP1 POP DUP2 JUMP JUMPDEST PUSH1 0x1 DUP2 PUSH1 0x2 DUP2 GT ISZERO PUSH2 0x55D JUMPI PUSH2 0x55D PUSH2 0xC16 JUMP JUMPDEST EQ DUP1 PUSH2 0x57A JUMPI POP PUSH1 0x2 DUP2 PUSH1 0x2 DUP2 GT ISZERO PUSH2 0x578 JUMPI PUSH2 0x578 PUSH2 0xC16 JUMP JUMPDEST EQ JUMPDEST PUSH2 0x5B6 JUMPI PUSH1 0x40 MLOAD PUSH3 0x461BCD PUSH1 0xE5 SHL DUP2 MSTORE PUSH1 0x20 PUSH1 0x4 DUP3 ADD MSTORE PUSH1 0xD PUSH1 0x24 DUP3 ADD MSTORE PUSH13 0x24B73B30B634B2103937B63297 PUSH1 0x99 SHL PUSH1 0x44 DUP3 ADD MSTORE PUSH1 0x64 ADD PUSH2 0x388 JUMP JUMPDEST CALLER PUSH1 0x0 SWAP1 DUP2 MSTORE PUSH1 0x1 PUSH1 0x20 MSTORE PUSH1 0x40 DUP2 KECCAK256 SLOAD PUSH1 0xFF AND PUSH1 0x2 DUP2 GT ISZERO PUSH2 0x5DA JUMPI PUSH2 0x5DA PUSH2 0xC16 JUMP JUMPDEST EQ PUSH2 0x61F JUMPI PUSH1 0x40 MLOAD PUSH3 0x461BCD PUSH1 0xE5 SHL DUP2 MSTORE PUSH1 0x20 PUSH1 0x4 DUP3 ADD MSTORE PUSH1 0x15 PUSH1 0x24 DUP3 ADD MSTORE PUSH21 0x526F6C652061737369676E656420416C7265616479 PUSH1 0x58 SHL PUSH1 0x44 DUP3 ADD MSTORE PUSH1 0x64 ADD PUSH2 0x388 JUMP JUMPDEST PUSH1 0x2 DUP2 PUSH1 0x2 DUP2 GT ISZERO PUSH2 0x633 JUMPI PUSH2 0x633 PUSH2 0xC16 JUMP JUMPDEST EQ DUP1 ISZERO PUSH2 0x659 JUMPI POP CALLER PUSH1 0x0 SWAP1 DUP2 MSTORE PUSH1 0x20 DUP2 SWAP1 MSTORE PUSH1 0x40 SWAP1 KECCAK256 DUP1 SLOAD PUSH2 0x655 SWAP1 PUSH2 0xCC0 JUMP JUMPDEST ISZERO SWAP1 POP JUMPDEST ISZERO PUSH2 0x6B7 JUMPI PUSH1 0x4 DUP1 SLOAD PUSH1 0x1 DUP2 ADD DUP3 SSTORE PUSH1 0x0 SWAP2 DUP3 MSTORE PUSH32 0x8A35ACFBC15FF81A39AE7D344FD709F28E8600B4AA8C65C6B64BFE7FE36BD19B ADD DUP1 SLOAD PUSH1 0x1 PUSH1 0x1 PUSH1 0xA0 SHL SUB NOT AND CALLER OR SWAP1 SSTORE PUSH1 0x5 DUP1 SLOAD SWAP2 PUSH2 0x6AD DUP4 PUSH2 0xE21 JUMP JUMPDEST SWAP2 SWAP1 POP SSTORE POP PUSH2 0x74B JUMP JUMPDEST PUSH1 0x1 DUP2 PUSH1 0x2 DUP2 GT ISZERO PUSH2 0x6CB JUMPI PUSH2 0x6CB PUSH2 0xC16 JUMP JUMPDEST EQ DUP1 ISZERO PUSH2 0x6F1 JUMPI POP CALLER PUSH1 0x0 SWAP1 DUP2 MSTORE PUSH1 0x20 DUP2 SWAP1 MSTORE PUSH1 0x40 SWAP1 KECCAK256 DUP1 SLOAD PUSH2 0x6ED SWAP1 PUSH2 0xCC0 JUMP JUMPDEST ISZERO SWAP1 POP JUMPDEST ISZERO PUSH2 0x74B JUMPI PUSH1 0x6 DUP1 SLOAD PUSH1 0x1 DUP2 ADD DUP3 SSTORE PUSH1 0x0 SWAP2 DUP3 MSTORE PUSH32 0xF652222313E28459528D920B65115C16C04F3EFC82AAEDC97BE59F3F377C0D3F ADD DUP1 SLOAD PUSH1 0x1 PUSH1 0x1 PUSH1 0xA0 SHL SUB NOT AND CALLER OR SWAP1 SSTORE PUSH1 0x7 DUP1 SLOAD SWAP2 PUSH2 0x745 DUP4 PUSH2 0xE21 JUMP JUMPDEST SWAP2 SWAP1 POP SSTORE POP JUMPDEST CALLER PUSH1 0x0 SWAP1 DUP2 MSTORE PUSH1 0x20 DUP2 SWAP1 MSTORE PUSH1 0x40 SWAP1 KECCAK256 PUSH2 0x765 DUP4 DUP6 DUP4 PUSH2 0xD61 JUMP JUMPDEST POP CALLER PUSH1 0x0 SWAP1 DUP2 MSTORE PUSH1 0x1 PUSH1 0x20 DUP2 SWAP1 MSTORE PUSH1 0x40 SWAP1 SWAP2 KECCAK256 DUP1 SLOAD DUP4 SWAP3 PUSH1 0xFF NOT SWAP1 SWAP2 AND SWAP1 DUP4 PUSH1 0x2 DUP2 GT ISZERO PUSH2 0x795 JUMPI PUSH2 0x795 PUSH2 0xC16 JUMP JUMPDEST MUL OR SWAP1 SSTORE POP POP POP POP JUMP JUMPDEST PUSH1 0x1 DUP1 CALLER PUSH1 0x0 SWAP1 DUP2 MSTORE PUSH1 0x1 PUSH1 0x20 MSTORE PUSH1 0x40 SWAP1 KECCAK256 SLOAD PUSH1 0xFF AND PUSH1 0x2 DUP2 GT ISZERO PUSH2 0x7C6 JUMPI PUSH2 0x7C6 PUSH2 0xC16 JUMP JUMPDEST EQ PUSH2 0x805 JUMPI PUSH1 0x40 MLOAD PUSH3 0x461BCD PUSH1 0xE5 SHL DUP2 MSTORE PUSH1 0x20 PUSH1 0x4 DUP3 ADD MSTORE PUSH1 0xF PUSH1 0x24 DUP3 ADD MSTORE PUSH15 0x2737BA1030BABA3437B934BD32B217 PUSH1 0x89 SHL PUSH1 0x44 DUP3 ADD MSTORE PUSH1 0x64 ADD PUSH2 0x388 JUMP JUMPDEST CALLER PUSH1 0x0 SWAP1 DUP2 MSTORE PUSH1 0x2 PUSH1 0x20 MSTORE PUSH1 0x40 SWAP1 KECCAK256 PUSH1 0x1 ADD PUSH2 0x822 DUP4 DUP6 DUP4 PUSH2 0xD61 JUMP JUMPDEST POP POP POP POP JUMP JUMPDEST PUSH1 0x0 PUSH1 0x20 DUP2 SWAP1 MSTORE SWAP1 DUP2 MSTORE PUSH1 0x40 SWAP1 KECCAK256 DUP1 SLOAD PUSH2 0x841 SWAP1 PUSH2 0xCC0 JUMP JUMPDEST DUP1 PUSH1 0x1F ADD PUSH1 0x20 DUP1 SWAP2 DIV MUL PUSH1 0x20 ADD PUSH1 0x40 MLOAD SWAP1 DUP2 ADD PUSH1 0x40 MSTORE DUP1 SWAP3 SWAP2 SWAP1 DUP2 DUP2 MSTORE PUSH1 0x20 ADD DUP3 DUP1 SLOAD PUSH2 0x86D SWAP1 PUSH2 0xCC0 JUMP JUMPDEST DUP1 ISZERO PUSH2 0x8BA JUMPI DUP1 PUSH1 0x1F LT PUSH2 0x88F JUMPI PUSH2 0x100 DUP1 DUP4 SLOAD DIV MUL DUP4 MSTORE SWAP2 PUSH1 0x20 ADD SWAP2 PUSH2 0x8BA JUMP JUMPDEST DUP3 ADD SWAP2 SWAP1 PUSH1 0x0 MSTORE PUSH1 0x20 PUSH1 0x0 KECCAK256 SWAP1 JUMPDEST DUP2 SLOAD DUP2 MSTORE SWAP1 PUSH1 0x1 ADD SWAP1 PUSH1 0x20 ADD DUP1 DUP4 GT PUSH2 0x89D JUMPI DUP3 SWAP1 SUB PUSH1 0x1F AND DUP3 ADD SWAP2 JUMPDEST POP POP POP POP POP DUP2 JUMP JUMPDEST PUSH1 0x6 DUP2 DUP2 SLOAD DUP2 LT PUSH2 0x52F JUMPI PUSH1 0x0 DUP1 REVERT JUMPDEST CALLER PUSH1 0x0 SWAP1 DUP2 MSTORE PUSH1 0x2 PUSH1 0x20 MSTORE PUSH1 0x40 SWAP1 KECCAK256 PUSH1 0x1 ADD DUP1 SLOAD PUSH1 0x60 SWAP2 SWAP1 PUSH2 0x8F3 SWAP1 PUSH2 0xCC0 JUMP JUMPDEST DUP1 PUSH1 0x1F ADD PUSH1 0x20 DUP1 SWAP2 DIV MUL PUSH1 0x20 ADD PUSH1 0x40 MLOAD SWAP1 DUP2 ADD PUSH1 0x40 MSTORE DUP1 SWAP3 SWAP2 SWAP1 DUP2 DUP2 MSTORE PUSH1 0x20 ADD DUP3 DUP1 SLOAD PUSH2 0x91F SWAP1 PUSH2 0xCC0 JUMP JUMPDEST DUP1 ISZERO PUSH2 0x96C JUMPI DUP1 PUSH1 0x1F LT PUSH2 0x941 JUMPI PUSH2 0x100 DUP1 DUP4 SLOAD DIV MUL DUP4 MSTORE SWAP2 PUSH1 0x20 ADD SWAP2 PUSH2 0x96C JUMP JUMPDEST DUP3 ADD SWAP2 SWAP1 PUSH1 0x0 MSTORE PUSH1 0x20 PUSH1 0x0 KECCAK256 SWAP1 JUMPDEST DUP2 SLOAD DUP2 MSTORE SWAP1 PUSH1 0x1 ADD SWAP1 PUSH1 0x20 ADD DUP1 DUP4 GT PUSH2 0x94F JUMPI DUP3 SWAP1 SUB PUSH1 0x1F AND DUP3 ADD SWAP2 JUMPDEST POP POP POP POP POP SWAP1 POP SWAP1 JUMP JUMPDEST PUSH1 0x3 PUSH1 0x20 MSTORE DUP2 PUSH1 0x0 MSTORE PUSH1 0x40 PUSH1 0x0 KECCAK256 DUP2 DUP2 SLOAD DUP2 LT PUSH2 0x992 JUMPI PUSH1 0x0 DUP1 REVERT JUMPDEST PUSH1 0x0 SWAP2 DUP3 MSTORE PUSH1 0x20 SWAP1 SWAP2 KECCAK256 ADD SLOAD PUSH1 0x1 PUSH1 0x1 PUSH1 0xA0 SHL SUB AND SWAP2 POP DUP3 SWAP1 POP JUMP JUMPDEST POP DUP1 SLOAD PUSH2 0x9BA SWAP1 PUSH2 0xCC0 JUMP JUMPDEST PUSH1 0x0 DUP3 SSTORE DUP1 PUSH1 0x1F LT PUSH2 0x9CA JUMPI POP POP JUMP JUMPDEST PUSH1 0x1F ADD PUSH1 0x20 SWAP1 DIV SWAP1 PUSH1 0x0 MSTORE PUSH1 0x20 PUSH1 0x0 KECCAK256 SWAP1 DUP2 ADD SWAP1 PUSH2 0x9E8 SWAP2 SWAP1 PUSH2 0x9EB JUMP JUMPDEST POP JUMP JUMPDEST JUMPDEST DUP1 DUP3 GT ISZERO PUSH2 0xA00 JUMPI PUSH1 0x0 DUP2 SSTORE PUSH1 0x1 ADD PUSH2 0x9EC JUMP JUMPDEST POP SWAP1 JUMP JUMPDEST DUP1 CALLDATALOAD PUSH1 0x1 PUSH1 0x1 PUSH1 0xA0 SHL SUB DUP2 AND DUP2 EQ PUSH2 0xA1B JUMPI PUSH1 0x0 DUP1 REVERT JUMPDEST SWAP2 SWAP1 POP JUMP JUMPDEST PUSH1 0x0 PUSH1 0x20 DUP3 DUP5 SUB SLT ISZERO PUSH2 0xA32 JUMPI PUSH1 0x0 DUP1 REVERT JUMPDEST PUSH2 0xA3B DUP3 PUSH2 0xA04 JUMP JUMPDEST SWAP4 SWAP3 POP POP POP JUMP JUMPDEST PUSH1 0x0 DUP2 MLOAD DUP1 DUP5 MSTORE PUSH1 0x0 JUMPDEST DUP2 DUP2 LT ISZERO PUSH2 0xA68 JUMPI PUSH1 0x20 DUP2 DUP6 ADD DUP2 ADD MLOAD DUP7 DUP4 ADD DUP3 ADD MSTORE ADD PUSH2 0xA4C JUMP JUMPDEST POP PUSH1 0x0 PUSH1 0x20 DUP3 DUP7 ADD ADD MSTORE PUSH1 0x20 PUSH1 0x1F NOT PUSH1 0x1F DUP4 ADD AND DUP6 ADD ADD SWAP2 POP POP SWAP3 SWAP2 POP POP JUMP JUMPDEST DUP3 ISZERO ISZERO DUP2 MSTORE PUSH1 0x40 PUSH1 0x20 DUP3 ADD MSTORE PUSH1 0x0 PUSH2 0xAA3 PUSH1 0x40 DUP4 ADD DUP5 PUSH2 0xA42 JUMP JUMPDEST SWAP5 SWAP4 POP POP POP POP JUMP JUMPDEST PUSH1 0x0 DUP1 DUP4 PUSH1 0x1F DUP5 ADD SLT PUSH2 0xABD JUMPI PUSH1 0x0 DUP1 REVERT JUMPDEST POP DUP2 CALLDATALOAD PUSH8 0xFFFFFFFFFFFFFFFF DUP2 GT ISZERO PUSH2 0xAD5 JUMPI PUSH1 0x0 DUP1 REVERT JUMPDEST PUSH1 0x20 DUP4 ADD SWAP2 POP DUP4 PUSH1 0x20 DUP3 DUP6 ADD ADD GT ISZERO PUSH2 0xAED JUMPI PUSH1 0x0 DUP1 REVERT JUMPDEST SWAP3 POP SWAP3 SWAP1 POP JUMP JUMPDEST PUSH1 0x0 DUP1 PUSH1 0x0 DUP1 PUSH1 0x60 DUP6 DUP8 SUB SLT ISZERO PUSH2 0xB0A JUMPI PUSH1 0x0 DUP1 REVERT JUMPDEST PUSH2 0xB13 DUP6 PUSH2 0xA04 JUMP JUMPDEST SWAP4 POP PUSH1 0x20 DUP6 ADD CALLDATALOAD DUP1 ISZERO ISZERO DUP2 EQ PUSH2 0xB28 JUMPI PUSH1 0x0 DUP1 REVERT JUMPDEST SWAP3 POP PUSH1 0x40 DUP6 ADD CALLDATALOAD PUSH8 0xFFFFFFFFFFFFFFFF DUP2 GT ISZERO PUSH2 0xB44 JUMPI PUSH1 0x0 DUP1 REVERT JUMPDEST PUSH2 0xB50 DUP8 DUP3 DUP9 ADD PUSH2 0xAAB JUMP JUMPDEST SWAP6 SWAP9 SWAP5 SWAP8 POP SWAP6 POP POP POP POP JUMP JUMPDEST PUSH1 0x0 DUP1 PUSH1 0x40 DUP4 DUP6 SUB SLT ISZERO PUSH2 0xB6F JUMPI PUSH1 0x0 DUP1 REVERT JUMPDEST PUSH2 0xB78 DUP4 PUSH2 0xA04 JUMP JUMPDEST SWAP2 POP PUSH2 0xB86 PUSH1 0x20 DUP5 ADD PUSH2 0xA04 JUMP JUMPDEST SWAP1 POP SWAP3 POP SWAP3 SWAP1 POP JUMP JUMPDEST PUSH1 0x20 DUP2 MSTORE PUSH1 0x0 PUSH2 0xA3B PUSH1 0x20 DUP4 ADD DUP5 PUSH2 0xA42 JUMP JUMPDEST PUSH1 0x0 PUSH1 0x20 DUP3 DUP5 SUB SLT ISZERO PUSH2 0xBB4 JUMPI PUSH1 0x0 DUP1 REVERT JUMPDEST POP CALLDATALOAD SWAP2 SWAP1 POP JUMP JUMPDEST PUSH1 0x0 DUP1 PUSH1 0x0 PUSH1 0x40 DUP5 DUP7 SUB SLT ISZERO PUSH2 0xBD0 JUMPI PUSH1 0x0 DUP1 REVERT JUMPDEST DUP4 CALLDATALOAD PUSH8 0xFFFFFFFFFFFFFFFF DUP2 GT ISZERO PUSH2 0xBE7 JUMPI PUSH1 0x0 DUP1 REVERT JUMPDEST PUSH2 0xBF3 DUP7 DUP3 DUP8 ADD PUSH2 0xAAB JUMP JUMPDEST SWAP1 SWAP5 POP SWAP3 POP POP PUSH1 0x20 DUP5 ADD CALLDATALOAD PUSH1 0x3 DUP2 LT PUSH2 0xC0B JUMPI PUSH1 0x0 DUP1 REVERT JUMPDEST DUP1 SWAP2 POP POP SWAP3 POP SWAP3 POP SWAP3 JUMP JUMPDEST PUSH4 0x4E487B71 PUSH1 0xE0 SHL PUSH1 0x0 MSTORE PUSH1 0x21 PUSH1 0x4 MSTORE PUSH1 0x24 PUSH1 0x0 REVERT JUMPDEST PUSH1 0x20 DUP2 ADD PUSH1 0x3 DUP4 LT PUSH2 0xC4E JUMPI PUSH4 0x4E487B71 PUSH1 0xE0 SHL PUSH1 0x0 MSTORE PUSH1 0x21 PUSH1 0x4 MSTORE PUSH1 0x24 PUSH1 0x0 REVERT JUMPDEST SWAP2 SWAP1 MSTORE SWAP1 JUMP JUMPDEST PUSH1 0x0 DUP1 PUSH1 0x20 DUP4 DUP6 SUB SLT ISZERO PUSH2 0xC67 JUMPI PUSH1 0x0 DUP1 REVERT JUMPDEST DUP3 CALLDATALOAD PUSH8 0xFFFFFFFFFFFFFFFF DUP2 GT ISZERO PUSH2 0xC7E JUMPI PUSH1 0x0 DUP1 REVERT JUMPDEST PUSH2 0xC8A DUP6 DUP3 DUP7 ADD PUSH2 0xAAB JUMP JUMPDEST SWAP1 SWAP7 SWAP1 SWAP6 POP SWAP4 POP POP POP POP JUMP JUMPDEST PUSH1 0x0 DUP1 PUSH1 0x40 DUP4 DUP6 SUB SLT ISZERO PUSH2 0xCA9 JUMPI PUSH1 0x0 DUP1 REVERT JUMPDEST PUSH2 0xCB2 DUP4 PUSH2 0xA04 JUMP JUMPDEST SWAP5 PUSH1 0x20 SWAP4 SWAP1 SWAP4 ADD CALLDATALOAD SWAP4 POP POP POP JUMP JUMPDEST PUSH1 0x1 DUP2 DUP2 SHR SWAP1 DUP3 AND DUP1 PUSH2 0xCD4 JUMPI PUSH1 0x7F DUP3 AND SWAP2 POP JUMPDEST PUSH1 0x20 DUP3 LT DUP2 SUB PUSH2 0xCF4 JUMPI PUSH4 0x4E487B71 PUSH1 0xE0 SHL PUSH1 0x0 MSTORE PUSH1 0x22 PUSH1 0x4 MSTORE PUSH1 0x24 PUSH1 0x0 REVERT JUMPDEST POP SWAP2 SWAP1 POP JUMP JUMPDEST PUSH4 0x4E487B71 PUSH1 0xE0 SHL PUSH1 0x0 MSTORE PUSH1 0x41 PUSH1 0x4 MSTORE PUSH1 0x24 PUSH1 0x0 REVERT JUMPDEST PUSH1 0x1F DUP3 GT ISZERO PUSH2 0xD5C JUMPI PUSH1 0x0 DUP2 PUSH1 0x0 MSTORE PUSH1 0x20 PUSH1 0x0 KECCAK256 PUSH1 0x1F DUP6 ADD PUSH1 0x5 SHR DUP2 ADD PUSH1 0x20 DUP7 LT ISZERO PUSH2 0xD39 JUMPI POP DUP1 JUMPDEST PUSH1 0x1F DUP6 ADD PUSH1 0x5 SHR DUP3 ADD SWAP2 POP JUMPDEST DUP2 DUP2 LT ISZERO PUSH2 0xD58 JUMPI DUP3 DUP2 SSTORE PUSH1 0x1 ADD PUSH2 0xD45 JUMP JUMPDEST POP POP POP JUMPDEST POP POP POP JUMP JUMPDEST PUSH8 0xFFFFFFFFFFFFFFFF DUP4 GT ISZERO PUSH2 0xD79 JUMPI PUSH2 0xD79 PUSH2 0xCFA JUMP JUMPDEST PUSH2 0xD8D DUP4 PUSH2 0xD87 DUP4 SLOAD PUSH2 0xCC0 JUMP JUMPDEST DUP4 PUSH2 0xD10 JUMP JUMPDEST PUSH1 0x0 PUSH1 0x1F DUP5 GT PUSH1 0x1 DUP2 EQ PUSH2 0xDC1 JUMPI PUSH1 0x0 DUP6 ISZERO PUSH2 0xDA9 JUMPI POP DUP4 DUP3 ADD CALLDATALOAD JUMPDEST PUSH1 0x0 NOT PUSH1 0x3 DUP8 SWAP1 SHL SHR NOT AND PUSH1 0x1 DUP7 SWAP1 SHL OR DUP4 SSTORE PUSH2 0x45A JUMP JUMPDEST PUSH1 0x0 DUP4 DUP2 MSTORE PUSH1 0x20 SWAP1 KECCAK256 PUSH1 0x1F NOT DUP7 AND SWAP1 DUP4 JUMPDEST DUP3 DUP2 LT ISZERO PUSH2 0xDF2 JUMPI DUP7 DUP6 ADD CALLDATALOAD DUP3 SSTORE PUSH1 0x20 SWAP5 DUP6 ADD SWAP5 PUSH1 0x1 SWAP1 SWAP3 ADD SWAP2 ADD PUSH2 0xDD2 JUMP JUMPDEST POP DUP7 DUP3 LT ISZERO PUSH2 0xE0F JUMPI PUSH1 0x0 NOT PUSH1 0xF8 DUP9 PUSH1 0x3 SHL AND SHR NOT DUP5 DUP8 ADD CALLDATALOAD AND DUP2 SSTORE JUMPDEST POP POP PUSH1 0x1 DUP6 PUSH1 0x1 SHL ADD DUP4 SSTORE POP POP POP POP POP JUMP JUMPDEST PUSH1 0x0 PUSH1 0x1 DUP3 ADD PUSH2 0xE41 JUMPI PUSH4 0x4E487B71 PUSH1 0xE0 SHL PUSH1 0x0 MSTORE PUSH1 0x11 PUSH1 0x4 MSTORE PUSH1 0x24 PUSH1 0x0 REVERT JUMPDEST POP PUSH1 0x1 ADD SWAP1 JUMP INVALID LOG2 PUSH5 0x6970667358 0x22 SLT KECCAK256 0xAB PUSH15 0x7B0999816C2A3ABF54956E06A56190 PUSH3 0xD91D18 SHL SDIV 0xF6 CALLCODE SAR DUP8 SELFBALANCE 0xF9 NOT 0xF7 0xC3 PUSH5 0x736F6C6343 STOP ADDMOD XOR STOP CALLER "
        },
        "methodIdentifiers": {
          "docterAccess(address,uint256)": "f277c161",
          "docterCount()": "2ad0a7a8",
          "docterList(uint256)": "53a5711b",
          "getDoctorFiles(address,address)": "4816061f",
          "getDoctorPermission(address,address)": "a5faca9e",
          "getMedicationRecord()": "de69d4fa",
          "modifyAccess(address,bool,bytes)": "137fca23",
          "modifyUser(bytes,uint8)": "64995d56",
          "patientCount()": "a0303c41",
          "patientList(uint256)": "babb1d41",
          "patients(address)": "0869cfbc",
          "publicKeys(address)": "a3d6f9a9",
          "uploadMedicationRecord(bytes)": "8c6dccfd",
          "userRoles(address)": "74d5e100"
        }
      }
    }
  }
}